:020000040000FA
:0A000000020CF02D2D45452D2D00BA
:10000B00020C449000391205709000427405F09078
:10001B000041E4F0900041E0FFC3648094865019E6
:10002B00E03395E0FE74012FF58274003EF583E416
:10003B00F0900041E004F080DB7F007E007D007CCF
:10004B0000900039E0F8A3E0F9A3E0FAA3E0FBC3CA
:10005B0012054770030202217B107A0E790078009B
:10006B00900039E0FCA3E0FDA3E0FEA3E0FF120E3D
:10007B00027B107A0E7900780012042AA804A905D5
:10008B00AA06AB07900039E0FCA3E0FDA3E0FEA3BA
:10009B00E0FFC39BFFEE9AFEED99FDEC98FC7B3CD9
:1000AB007A0079007800120E027B647A007900786E
:1000BB000012042AC004C005C006C0077B107A0ECC
:1000CB0079007800900039E0FCA3E0FDA3E0FEA3EB
:1000DB00E0FF120E027B107A277900780012042AB7
:1000EB00A804A905AA06AB07D007D006D005D004F3
:1000FB00EB2FFFEA3EFEE93DFDE83CFCC004C005EA
:10010B00C006C0077B3C7A0079007800900039E08C
:10011B00FCA3E0FDA3E0FEA3E0FF120E027B3C7A02
:10012B00007900780012042AA804A905AA06AB07D7
:10013B00900039E0FCA3E0FDA3E0FEA3E0FFC39B2E
:10014B00FBEE9AFAED99F9EC98F8D007D006D005AA
:10015B00D004EB2FFFEA3EFEE93DFDE83CFC9000AE
:10016B00391205707B0A7A0079007800900039E02B
:10017B00FCA3E0FDA3E0FEA3E0FF120E027B0A7AD4
:10018B00007900780012042AA804A905AA06AB0777
:10019B00900039E0FCA3E0FDA3E0FEA3E0FFC39BCE
:1001AB00FFEE9AFEED99FDEC98FCA3120570900002
:1001BB003DE0FCA3E0FDA3E0FEA3E0FF900042E0E6
:1001CB00FEFD3395E0FC74012DF58274003CF58344
:1001DB00EFF0900039E0FCA3E0FDA3E0FEA3E0FF0D
:1001EB007B0A7A0079007800120E02900039120512
:1001FB0070900042E014FFF0D36480947F4017901E
:10020B000039E0FCA3E0FDA3E0FEA3E0FFEC4D4EC4
:10021B004F600302016F2290002FEBF0A3EAF0A3D3
:10022B00E9F0900037E4F0A3F0900038E0FFC364EE
:10023B00809486501AE03395E0FE74012FF582749A
:10024B00003EF5837420F0900038E004F080DA90E3
:10025B00002FE0FBA3E0FAA3E0F9EA494B7003029D
:10026B0003FA900038E4F090002FE0FBA3E0FAA330
:10027B00E0F91203FBFF900036F070030203A89025
:10028B000038E0FFC36480948640030203A890000B
:10029B0037E4F0900036E0FF942F400CE0943A5096
:1002AB0007A37430F0020372900036E0FFD3946022
:1002BB0040047F0180027F00900036E0FEC394670C
:1002CB0050047E0180027E00EE5FFF6009900037D4
:1002DB007457F0020372900036E0FFD39440400451
:1002EB007F0180027F00900036E0FEC394475004EC
:1002FB007E0180027E00EE5FFF600890003774374E
:10030B00F08064900036E0FFB42D06A3741DF080DE
:10031B0056900036E0FFB46806A37457F0804890FF
:10032B000036E0FFB44806A37437F0803A900036ED
:10033B00E0FFB42E2A900038E0FF70089000327472
:10034B00FFF0804C900038E0FF3395E0FE74312FC6
:10035B00F58274003EF583E0FF4480FFF08031901E
:10036B000036E0FFB42029900037E0FF900036E024
:10037B00FEC39FFF900038E0FEFD3395E0FC743226
:10038B002DF58274003CF583EFF0900038E004F01B
:10039B00900030E475F001120414020272900036E2
:1003AB007405F0900038E0FF14FF900037F09000D8
:1003BB0037E0FFD36480947F4035E03395E0FE74E3
:1003CB00322FF58274003EF583E0FF900036E0FE9D
:1003DB00FD3395E0FC74012DF58274003CF583EF41
:1003EB00F0900037E014F0900036E014F080BF225C
:1003FB00BB010689828A83E0225002E722BBFE0200
:10040B00E32289828A83E49322C5F0F8A3E028F0E3
:10041B00C5F0F8E582158270021583E038F022E80A
:10042B008FF0A4CC8BF0A42CFCE98EF0A42CFC8ACE
:10043B00F0EDA42CFCEA8EF0A4CDA8F08BF0A42D4B
:10044B00CC3825F0FDE98FF0A42CCD35F0FCEB8EEC
:10045B00F0A4FEA9F0EB8FF0A4CFC5F02ECD39FEA2
:10046B00E43CFCEAA42DCE35F0FDE43CFC2275F017
:10047B0008758200EF2FFFEE33FECD33CDCC33CC9E
:10048B00C58233C5829BED9AEC99E58298400CF5B9
:10049B0082EE9BFEED9AFDEC99FC0FD5F0D6E4CEE7
:1004AB00FBE4CDFAE4CCF9A88222B800C1B900591B
:1004BB00BA002DEC8BF084CFCECDFCE5F0CBF978E8
:1004CB0018EF2FFFEE33FEED33FDEC33FCEB33FB7C
:1004DB0010D703994004EB99FB0FD8E5E4F9FA2206
:1004EB007818EF2FFFEE33FEED33FDEC33FCC93301
:1004FB00C910D7059BE99A4007EC9BFCE99AF90FC9
:10050B00D8E0E4C9FAE4CCFB2275F010EF2FFFEE34
:10051B0033FEED33FDCC33CCC833C810D7079BEC7F
:10052B009AE899400AED9BFDEC9AFCE899F80FD5F7
:10053B00F0DAE4CDFBE4CCFAE4C8F922EB9FF5F05A
:10054B00EA9E42F0E99D42F0EC6480C864809845D5
:10055B00F022E8600FECC313FCED13FDEE13FEEF7E
:10056B0013FFD8F122ECF0A3EDF0A3EEF0A3EFF024
:10057B0022A8828583F0D083D08212059312059333
:10058B00120593120593E473E493A3C583C5F0C5D9
:10059B0083C8C582C8F0A3C583C5F0C583C8C5820F
:1005AB00C822D083D082F8E4937012740193700D3B
:1005BB00A3A393F8740193F5828883E47374029375
:1005CB006860EFA3A3A380DF900043120570900037
:1005DB0049E4F07FC17EBD7DF07CFF900043E0F8E5
:1005EB00A3E0F9A3E0FAA3E0FBC312054740197F90
:1005FB003F7E427D0F7C00900043E0F8A3E0A3E038
:10060B00A3E0D3120547400A7BFF7A00790312025D
:10061B002222900048E4F0900048E0FFC3648094ED
:10062B00865019E03395E0FE74012FF58274003E7D
:10063B00F583E4F0900048E004F080DB7F007E005F
:10064B007D007C00900043E0F8A3E0F9A3E0FAA35F
:10065B00E0FBC312054770030207807F007E007D1D
:10066B00007C00900043E0F8A3E0A3E0A3E0C312FA
:10067B00054750259000497401F0900043E0FCA31E
:10068B00E0FDA3E0FEA3E0FF7BFF7AFF79FF78FF9D
:10069B0012042A900043120570900048E4F0900079
:1006AB0048E0FFC36480948640030207537B0A7AB9
:1006BB000079007800900043E0FCA3E0FDA3E0FE8E
:1006CB00A3E0FF120E027B0A7A0079007800120475
:1006DB002AAB07900043E0FCA3E0FDA3E0FEA3E000
:1006EB00FFC39BFFA3F0E0FFA3E0FEFD3395E0FC0F
:1006FB00C374059DFDE49CFC74012DF58274003CD4
:10070B00F583EFF0900043E0FCA3E0FDA3E0FEA334
:10071B00E0FF7B0A7A0079007800120E029000430A
:10072B001205707F007E007D007C00900043E0F896
:10073B00A3E0F9A3E0FAA3E0FBC31205476009901D
:10074B000048E004F00206A9900049E0FF60269003
:10075B000048E0FFC364809486501AE03395E0FEB6
:10076B00C374059FFFE49EFE74012FF58274003E57
:10077B00F5837410F022900069E4F090001BE0FE0A
:10078B00A3E0FF25E0FFEE33FE2095047D01800200
:10079B007D007C00EEEF4DFF90001BEEF0A3EFF021
:1007AB00A3E0FEA3E0FF25E0FFEE33FE20B0047DC7
:1007BB000180027D007C00EEEF4DFF90001DEEF0FE
:1007CB00A3EFF0A3E0FEA3E0FF25E0FFEE33FE2056
:1007DB0087047D0180027D007C00EEEF4DFF9000D1
:1007EB001FEEF0A3EFF0A3E0FEA3E0FF25E0FFEE8A
:1007FB0033FE2093047D0180027D007C00EEEF4DE3
:10080B00FF900021EEF0A3EFF0900068E4F0900071
:10081B0068E0FFC3940440030208F6E025E0241BC4
:10082B00F582E43400F583E0FEA3E0FFF47002EE02
:10083B00F47057900068E0FF7E007401A8070880F1
:10084B0005C333CE33CED8F9FF900028E0FD7C00F2
:10085B00EEECFEEF5DFF7032900068E0FFF8740184
:10086B00088002C333D8FCFF900028E0FEEF4EFF58
:10087B00F0900068E0FFF87401088002C333D8FCE5
:10088B00FF900069E0FEEF4EFFF0900068E0FF255F
:10089B00E0241BF582E43400F583E0FEA3E0FF4E79
:1008AB007040900068E0FF7E007401A80708800587
:1008BB00C333CE33CED8F9FF900028E0FD7C00EE99
:1008CB00ECFEEF5DFF601B900068E0FFF874110811
:1008DB008002C333D8FCFFF4FF900028E0FEEF5EEC
:1008EB00FFF0900068E004F0020819900069E0FF47
:1008FB00227F07120A4F900029E4F0A3F090002DFD
:10090B00F0F5B1F5B2F5B3F5B4F5ACF5AD53B1BF48
:10091B0043B24053B3FE43B40153B3EF43B410534C
:10092B00B1FD43B20253B3FB43B40453B1EF43B233
:10093B001053B3FD43B40253B1F743B20853B1FEA6
:10094B0043B20153B1DF43B220D295D2B0D287D29A
:10095B0093120EEE7F407EE27D01FC1205D3C29214
:10096B00C281D284D291C283C280C290900062E4D1
:10097B00F0900062E0FFC394105015A286B39286EC
:10098B00E05402FFC313FF24FF9290E004F080E1D8
:10099B0090004B12057C000007D07F18120D8AD2F5
:1009AB00AF900063E4F0A3F0900063E0FEA3E0FFE0
:1009BB00C39480EE9402500DE004F0700690006337
:1009CB00E004F080E312078190002EEFF090002DF1
:1009DB00E0FFA3E0FE6F60C9E0FF90002DF0A36085
:1009EB00C09000237419F0C28590002EE01205AD63
:1009FB000A0D010A1D020A3A040A3A0800000A3AD3
:100A0B00802D90002AE0243CF0900029E03400F087
:100A1B00801D900029E0FEA3E0FFD3943BEE6480A1
:100A2B009480400BE024C4F0900029E034FFF09058
:100A3B000029E0FEA3E0FFEE3395E0FDFC12000E73
:100A4B000209AC2290006EEFF0A2AF9200C2AF751C
:100A5B00C7AA75C755439F01A20092AF759100E0DD
:100A6B00FF1205AD0A7C060A81070A860800000AF8
:100A7B008975A638800875A630800375A63075A7D2
:100A8B000075AF04A2AF9200C2AF75C7AA75C75568
:100A9B0043A401A20092AF85AE1C05A6A2AF9200A3
:100AAB00C2AF75C7AA75C75543A401A20092AF8503
:100ABB00AE1D90006EE0FF1205AD0ACC0800000BD6
:100ACB005DE51C25E0FFE51D5401FEEF2EFF9000B8
:100ADB006FF0E0FF54C0F51FE0543FF51EE024F229
:100AEB00F075AF0C75A60175A700A2AF9200C2AF4F
:100AFB00A2AF9200C2AF75C7AA75C75543AA40A251
:100B0B000092AF75C7AA75C75543A401A20092AF57
:100B1B00E5AE644B600BE5AE64526005E5AEB453D5
:100B2B0028E51EC3940F501AE51F6440600BE51FA8
:100B3B0064806005E51FB4C01090006FE024F2F0F4
:100B4B00800790006FE024FCF090006FE0FFC31370
:100B5B00F51C75C7AA75C755851C8475C7AA75C7BB
:100B6B0055851D85A2AF9200C2AF75C7AA75C75533
:100B7B00539FFEA20092AF2290005EEFF0900061B7
:100B8B00E4F090005EE0FFD394054003020C43E0D9
:100B9B0064026004E0B403069000617401F09000FD
:100BAB005EE0FF74012FF582E43400F583E0FF541F
:100BBB007FFF90005FF0E0FFC394125013E07407C7
:100BCB002FF582E43400F583E0FF90005FF08005A1
:100BDB0090005FE4F090005EE0FF70077F05120E5F
:100BEB0078800A90005EE0FF14FF120E7890006090
:100BFB00E4F0900060E0FFC394075034C286E090AD
:100C0B00005FE0FEA807088002C313D8FCFF30E0AA
:100C1B000C900061E0FF24FFB3929080099000617B
:100C2B00E0FF24FF9290D286900060E004F080C237
:100C3B0090005EE0FF120E4622C0E0C0F0C083C001
:100C4B0082C0D075D000C000C001C002C003C00478
:100C5B00C005C006C00785912275910085088C855B
:100C6B000A8AC28D120ED790001AE004F07006901B
:100C7B000019E004F0900023E0FF600814F0E0FF9F
:100C8B007002D285900019E0FEA3E0FFD39450EEE2
:100C9B0064809481401D900019E4F0A3F0A294B3FA
:100CAB009294900029E0FEA3E0FFEE3395E0FDFC6B
:100CBB0012000EE5226013A2AF9200C2AF75C7AA55
:100CCB0075C755759101A20092AFD007D006D0051C
:100CDB00D004D003D002D001D000D0D0D082D083AA
:100CEB00D0F0D0E032787FE4F6D8FD9000007FFFA3
:100CFB007E03E4F0A3DFFCDEFA758123020D4502CF
:100D0B0008FCE493A3F8E493A34003F68001F208F4
:100D1B00DFF48029E493A3F85407240CC8C333C42D
:100D2B00540F4420C8834004F456800146F6DFE498
:100D3B00800B0102040810204080900EAAE47E0173
:100D4B009360BCA3FF543F30E509541FFEE493A30B
:100D5B0060010ECF54C025E060A840B8E493A3FA1D
:100D6B00E493A3F8E493A3C8C582C8CAC583CAF0A9
:100D7B00A3C8C582C8CAC583CADFE9DEE780BE90B7
:100D8B00004AEFF0538EF75389F0438901E0FFE4FB
:100D9B00FCFDFEA3E0F8A3E0F9A3E0FAA3E0FB124D
:100DAB00042A7B0C7A00790078001204B5A804A9F8
:100DBB0005AA06AB07C374FF9BF50F74FF9AF50EDC
:100DCB00E499F50DE498F50CAF0FAE0EAD0DFC7874
:100DDB000812055D8F08E50FFFE50E7400FEE50DAB
:100DEB007400FDE50C7400FC8F0A85088C850A8A5B
:100DFB00C28DD28CD2A922C2D5E830E70FB2D5E48E
:100E0B00C39BFBE49AFAE499F9E498F8EC30E71702
:100E1B00B2D5120E381204B5E4C39BFBE49AFAE484
:100E2B0099F9E498F880031204B530D50DE4C39F0B
:100E3B00FFE49EFEE49DFDE49CFC22900070EFF02D
:100E4B00E0FF1205AD0E66000E69010E6C020E6F0F
:100E5B00030E72040E750500000E77C28122C2923A
:100E6B0022D28422D29122C28322C280229000718C
:100E7B00EFF0E0FF1205AD0E98000E9B010E9E02E7
:100E8B000EA1030EA4040EA70500000EA9D2812209
:100E9B00D29222C28422C29122D28322D2802242B7
:100EAB00001900004200290000520007FE30EDF946
:100EBB0033DBDFF0FFFBF73F0D3DCFE701004600D3
:100ECB00012020202020204100000000900000E0A5
:100EDB00FF04F0120B83900000E0FFD39405400257
:100EEB00E4F022D292D281C284C291D283D28022E8
:00000001FF
