:020000040000FA
:0A0000000212C22D2D45452D2D00E2
:10000B000208607F071210CD900117E4F0A3F09067
:10001B00011BF0F5B1F5B2F5B3F5B4F5ACF5AD5395
:10002B00B1BF43B24053B3FE43B40153B3EF43B438
:10003B001053B1FD43B20253B3FB43B40453B1EFBE
:10004B0043B21053B3FD43B40253B1F743B2085359
:10005B00B1FE43B20153B1DF43B220D295D2B0D23D
:10006B0087D2931214E6FFFEFDFC120C14C292C24F
:10007B0081D284D291C283C280C29090018DE4F070
:10008B0090018DE0FFC394105015A286B39286E0C9
:10009B005402FFC313FF24FF9290E004F080E13081
:1000AB00951130B00E90010B74FAF090011574FF9E
:1000BB00F08005900115E4F09001761205A0000088
:1000CB0007D07F1812135CD2AF90018EE4F0A3F02F
:1000DB0090018EE0FEA3E0FFC39480EE9402500DDE
:1000EB00E004F0700690018EE004F080E3120F52F2
:1000FB0090011CEFF090011BE0FFA3E0FE6F70037B
:10010B000202AFC2AFE0FF90011BF0A3700302022B
:10011B00AD90010B7419F0C28590011CE01205D152
:10012B00024701027B02013B0401DA08000002AD29
:10013B00900102E0FF707B90010CE0FEA3E0FF4E0C
:10014B00602C9001027401F090011904F0A3741C4F
:10015B00F0900100E4F0A37454F0900119E0FEA3B9
:10016B00E0FFEE3395E0FDFC12064C0202AD7FFB87
:10017B007E381214A9900110EFF07FFC7E38121418
:10018B00A9900111EFF07FFD7E381214A990011296
:10019B00EFF07FFE7E381214A9900113EFF090015F
:1001AB0010E0FEA3E0FFEE3395E0FDFC12064C02DF
:1001BB0002AD900102E0FF640160030202AD900109
:1001CB0019F0A3F09001027402F0D2940202AD90E8
:1001DB000102E0FF6003B40129900119E4F0A3F0E0
:1001EB0090010CF0A3F0A3F0A3F0900102F09001AA
:1001FB000CE0FEA3E0FFEE3395E0FDFC12064C0293
:10020B0002AD900102E0FF640260030202AD9001B7
:10021B0019F0A3F090010CF0A3F09001027403F01D
:10022B0090010EE4F0A374B4F090010EE0FEA3E095
:10023B00FFEE3395E0FDFC12064C8066900102E068
:10024B00FF705F90010CE0FEA3E0FFC39408EE6427
:10025B00809487504DE0243CF090010CE03400F08A
:10026B00E0FEA3E0FFEE3395E0FDFC12064C80327E
:10027B00900102E0FF702B90010CE0FEA3E0FFD396
:10028B00943BEE648094804019E024C4F090010C00
:10029B00E034FFF0E0FEA3E0FFEE3395E0FDFC124F
:1002AB00064CD2AF900115E0FF70030200D47FFB28
:1002BB007E381214A9900110EFF07FFC7E381214D7
:1002CB00A9900111EFF07FFD7E381214A990011255
:1002DB00EFF07FFE7E381214A9900113EFF090011E
:1002EB0017E0FEA3E0FF7C007D3C1203F1900110B0
:1002FB00E0FCA3E0FDEF2DFFEE3CFE900117F0A319
:10030B00EFF0900115E0FFF4601C900117E0FEA3E5
:10031B00E0FFEE3395E0FDFC7BFF7AFF79FF78FF82
:10032B00C31205707009900110E4F0A3F0801090D7
:10033B000117E0FEA3E0FF900110EEF0A3EFF090A9
:10034B000110E0FD7FFB7E38120DC2900111E0FD24
:10035B007FFC7E38120DC2900112E0FD7FFD7E38CE
:10036B00120DC2900113E0FD7FFE7E38120DC2907C
:10037B000115E4F0900117F0A3F00200D422BB01A9
:10038B000689828A83E0225002E722BBFE02E32227
:10039B0089828A83E49322BB010CE58229F582E5ED
:1003AB00833AF583E0225006E92582F8E622BBFE6C
:1003BB0006E92582F8E222E58229F582E5833AF502
:1003CB0083E49322F8BB010DE58229F582E5833A9C
:1003DB00F583E8F0225006E92582C8F622BBFE051C
:1003EB00E92582C8F222C2D5EC30E709B2D5E4C3C5
:1003FB009DFDE49CFCEE30E715B2D5E4C39FFFE412
:10040B009EFE1205F7C3E49DFDE49CFC80031205E0
:10041B00F730D507C3E49FFFE49EFE22C5F0F8A397
:10042B00E028F0C5F0F8E582158270021583E038FC
:10043B00F022E88FF0A4CC8BF0A42CFCE98EF0A476
:10044B002CFC8AF0EDA42CFCEA8EF0A4CDA8F08B4A
:10045B00F0A42DCC3825F0FDE98FF0A42CCD35F090
:10046B00FCEB8EF0A4FEA9F0EB8FF0A4CFC5F02E21
:10047B00CD39FEE43CFCEAA42DCE35F0FDE43CFC8A
:10048B002275F008758200EF2FFFEE33FECD33CDD2
:10049B00CC33CCC58233C5829BED9AEC99E582981F
:1004AB00400CF582EE9BFEED9AFDEC99FC0FD5F01E
:1004BB00D6E4CEFBE4CDFAE4CCF9A88222B800C195
:1004CB00B90059BA002DEC8BF084CFCECDFCE5F002
:1004DB00CBF97818EF2FFFEE33FEED33FDEC33FC49
:1004EB00EB33FB10D703994004EB99FB0FD8E5E4F2
:1004FB00F9FA227818EF2FFFEE33FEED33FDEC33D4
:10050B00FCC933C910D7059BE99A4007EC9BFCE962
:10051B009AF90FD8E0E4C9FAE4CCFB2275F010EF9E
:10052B002FFFEE33FEED33FDCC33CCC833C810D7E1
:10053B00079BEC9AE899400AED9BFDEC9AFCE89935
:10054B00F80FD5F0DAE4CDFBE4CCFAE4C8F922EBF2
:10055B009FF5F0EA9E42F0E99D42F0EC6480C8649E
:10056B00809845F022EB9FF5F0EA9E42F0E99D4220
:10057B00F0E89C45F022E8600FECC313FCED13FD93
:10058B00EE13FEEF13FFD8F122ECF0A3EDF0A3EE88
:10059B00F0A3EFF022A8828583F0D083D0821205DE
:1005AB00B71205B71205B71205B7E473E493A3C5E9
:1005BB0083C5F0C583C8C582C8F0A3C583C5F0C584
:1005CB0083C8C582C822D083D082F8E4937012749A
:1005DB000193700DA3A393F8740193F5828883E4C0
:1005EB00737402936860EFA3A3A380DFBC000BBE00
:1005FB000029EF8DF084FFADF022E4CCF875F00804
:10060B00EF2FFFEE33FEEC33FCEE9DEC984005FC38
:10061B00EE9DFE0FD5F0E9E4CEFD22EDF8F5F0EE00
:10062B008420D21CFEADF075F008EF2FFFED33FDEB
:10063B004007985006D5F0F222C398FD0FD5F0EA8B
:10064B00229001401205949001497405F0900148E5
:10065B00E4F0900148E0FFC3648094865019E033C6
:10066B0095E0FE741E2FF58274013EF583E4F09045
:10067B000148E004F080DB7F007E007D007C009071
:10068B000140E0F8A3E0F9A3E0FAA3E0FBC31205F5
:10069B005A700302085F7B107A0E79007800900184
:1006AB0040E0FCA3E0FDA3E0FEA3E0FF1213D47B2C
:1006BB00107A0E7900780012043DA804A905AA0649
:1006CB00AB07900140E0FCA3E0FDA3E0FEA3E0FF3D
:1006DB00C39BFFEE9AFEED99FDEC98FC7B3C7A00F8
:1006EB00790078001213D47B647A007900780012B9
:1006FB00043DC004C005C006C0077B107A0E79000C
:10070B007800900140E0FCA3E0FDA3E0FEA3E0FF36
:10071B001213D47B107A277900780012043DA804B9
:10072B00A905AA06AB07D007D006D005D004EB2F3E
:10073B00FFEA3EFEE93DFDE83CFCC004C005C006F7
:10074B00C0077B3C7A0079007800900140E0FCA365
:10075B00E0FDA3E0FEA3E0FF1213D47B3C7A00790B
:10076B0000780012043DA804A905AA06AB07900166
:10077B0040E0FCA3E0FDA3E0FEA3E0FFC39BFBEE88
:10078B009AFAED99F9EC98F8D007D006D005D00479
:10079B00EB2FFFEA3EFEE93DFDE83CFC90014012E9
:1007AB0005947B0A7A0079007800900140E0FCA365
:1007BB00E0FDA3E0FEA3E0FF1213D47B0A7A0079DD
:1007CB0000780012043DA804A905AA06AB07900106
:1007DB0040E0FCA3E0FDA3E0FEA3E0FFC39BFFEE24
:1007EB009AFEED99FDEC98FCA3120594900144E060
:1007FB00FCA3E0FDA3E0FEA3E0FF900149E0FEFDBA
:10080B003395E0FC741E2DF58274013CF583EFF0FB
:10081B00900140E0FCA3E0FDA3E0FEA3E0FF7B0A18
:10082B007A00790078001213D4900140120594904D
:10083B000149E014FFF0D36480947F40179001408E
:10084B00E0FCA3E0FDA3E0FEA3E0FFEC4D4E4F6008
:10085B00030207AD22C0E0C0F0C083C082C0D075D8
:10086B00D000C000C001C002C003C004C005C00658
:10087B00C00785912275910085088C850A8AC28DE7
:10088B001214CF900101E004F07006900100E00417
:10089B00F090010BE0FF600814F0E0FF7002D285CE
:1008AB00900100E0FEA3E0FFD39450EE64809481AE
:1008BB0050030209A1900100E4F0A3F0A294B392BB
:1008CB0094A3E0FF70030209A19001147401F0904E
:1008DB000119E0FEA3E0FF4E6049E024FFF0900118
:1008EB0019E034FFF0E0FEA3E0FF4E60030209A124
:1008FB0090010CE0FEA3E0FF4E600BD2949001023E
:10090B007402F00209A190010EE0FEA3E0FF4E700D
:10091B000890010EF0A374B4F0D29490010274030A
:10092B00F0807390010CE0FEA3E0FF4E603FE024EB
:10093B00FFF090010CE034FFF0900118E004F07030
:10094B0006900117E004F090010CE0FEA3E0FF4ECF
:10095B007044A3E0FEA3E0FF4E700890010EF0A3DD
:10096B0074B4F0D2949001027403F0802990010EBC
:10097B00E0FEA3E0FF4E601EE024FFF090010EE0CE
:10098B0034FFF0E0FEA3E0FF4E700BC29490010227
:10099B00F090011504F0900114E0FF6061E4F09019
:1009AB000102E0FFB4021390010CE0FEA3E0FFEEA6
:1009BB003395E0FDFC12064C8044900102E0FFB43D
:1009CB000113900119E0FEA3E0FFEE3395E0FDFC6F
:1009DB0012064C8029900102E0FFB4031390010E24
:1009EB00E0FEA3E0FFEE3395E0FDFC12064C800E1B
:1009FB00900102E0FF7007FFFEFDFC12064CE522A2
:100A0B006013A2AF9200C2AF75C7AA75C755759197
:100A1B0001A20092AFD007D006D005D004D003D0EE
:100A2B0002D001D000D0D0D082D083D0F0D0E03231
:100A3B00900136EBF0A3EAF0A3E9F090013EE4F06D
:100A4B00A3F090013FE0FFC364809486501AE0331B
:100A5B0095E0FE741E2FF58274013EF5837420F031
:100A6B0090013FE004F080DA900136E0FBA3E0FA5E
:100A7B00A3E0F9EA494B7003020C1390013FE4F039
:100A8B00900136E0FBA3E0FAA3E0F9120389FF9093
:100A9B00013DF07003020BC190013FE0FFC3648086
:100AAB0094864003020BC190013EE4F090013DE0BF
:100ABB00FF942F400CE0943A5007A37430F0020BD4
:100ACB008B90013DE0FFD3946040047F0180027F57
:100ADB000090013DE0FEC3946750047E0180027ECE
:100AEB0000EE5FFF600990013E7457F0020B8B9094
:100AFB00013DE0FFD3944040047F0180027F0090D2
:100B0B00013DE0FEC3944750047E0180027E00EE5F
:100B1B005FFF600890013E7437F0806490013DE008
:100B2B00FFB42D06A3741DF0805690013DE0FFB479
:100B3B006806A37457F0804890013DE0FFB4480667
:100B4B00A37437F0803A90013DE0FFB42E2A900158
:100B5B003FE0FF700890013974FFF0804C90013F2B
:100B6B00E0FF3395E0FE74382FF58274013EF58378
:100B7B00E0FF4480FFF0803190013DE0FFB420297D
:100B8B0090013EE0FF90013DE0FEC39FFF90013FCF
:100B9B00E0FEFD3395E0FC74392DF58274013CF5D4
:100BAB0083EFF090013FE004F0900137E475F00122
:100BBB00120427020A8B90013D7405F090013FE06F
:100BCB00FF14FF90013EF090013EE0FFD364809450
:100BDB007F4035E03395E0FE74392FF58274013E8A
:100BEB00F583E0FF90013DE0FEFD3395E0FC741EC4
:100BFB002DF58274013CF583EFF090013EE014F08B
:100C0B0090013DE014F080BF229001671205949093
:100C1B00016DE4F07FC17EBD7DF07CFF900167E04C
:100C2B00F8A3E0F9A3E0FAA3E0FBC312055A4019BD
:100C3B007F3F7E427D0F7C00900167E0F8A3E0A32D
:100C4B00E0A3E0D312055A400A7BFF7A0079031226
:100C5B000A3B2290016CE4F090016CE0FFC36480CE
:100C6B0094865019E03395E0FE741E2FF5827401C3
:100C7B003EF583E4F090016CE004F080DB7F007EB6
:100C8B00007D007C00900167E0F8A3E0F9A3E0FA97
:100C9B00A3E0FBC312055A7003020DC17F007E0057
:100CAB007D007C00900167E0F8A3E0A3E0A3E0C324
:100CBB0012055A502590016D7401F0900167E0FC0C
:100CCB00A3E0FDA3E0FEA3E0FF7BFF7AFF79FF78B3
:100CDB00FF12043D90016712059490016CE4F090B3
:100CEB00016CE0FFC3648094864003020D947B0A81
:100CFB007A0079007800900167E0FCA3E0FDA3E0A7
:100D0B00FEA3E0FF1213D47B0A7A0079007800125D
:100D1B00043DAB07900167E0FCA3E0FDA3E0FEA35D
:100D2B00E0FFC39BFFA3F0E0FFA3E0FEFD3395E0E4
:100D3B00FCC374059DFDE49CFC741E2DF5827401AF
:100D4B003CF583EFF0900167E0FCA3E0FDA3E0FE30
:100D5B00A3E0FF7B0A7A00790078001213D490018C
:100D6B00671205947F007E007D007C00900167E098
:100D7B00F8A3E0F9A3E0FAA3E0FBC312055A60095C
:100D8B0090016CE004F0020CEA90016DE0FF60262C
:100D9B0090016CE0FFC364809486501AE03395E0B9
:100DAB00FEC374059FFFE49EFE741E2FF582740133
:100DBB003EF5837410F02290016EEEF0A3EFF0A3DA
:100DCB00EDF0A3E4F090016EE0FEA3E0FF7807CE18
:100DDB00C313CE13D8F9FF7807C333CE33CED8F96C
:100DEB00FF900172EEF0A3EFF0900171E4F090012F
:100DFB0071E0FFC394805032E07E00A3E0FCA3E0DF
:100E0B00FDEF2DFFEE3CFE1214A9900174EFF0E004
:100E1B00FF900171E0FE74802EF582E43400F583BF
:100E2B00EFF0900171E004F080C4900170E0FF904E
:100E3B00016EE0FCA3E0FD7C00547FFD74802DF57A
:100E4B008274003CF583EFF0900172E0FEA3E0FFAB
:100E5B00F5A6900172E0FEA3E0FFEEFF7E00F5A782
:100E6B0075AEFFA2AF9200C2AF75C7AA75C7554347
:100E7B009F01A20092AFA2AF9200C2AF75C7AA7535
:100E8B00C75543A501A20092AF75AF22A2AF920046
:100E9B00C2AF75C7AA75C75543A401A20092AFA2F2
:100EAB00AF9200C2AF75C7AA75C755439F01A20089
:100EBB0092AFA2AF9200C2AF75C7AA75C75543A533
:100ECB0001A20092AF75AF21900171E4F090017116
:100EDB00E0FFC394805049A3E0FEA3E0FF900171B3
:100EEB00E0FEEF2EF5A6A3E0FEA3E0FFEEFF7E00F3
:100EFB00F5A7900171E0FF74802FF582E43400F5C3
:100F0B0083E0FFF5AEA2AF9200C2AF75C7AA75C75B
:100F1B005543A401A20092AF900171E004F080ADA3
:100F2B00A2AF9200C2AF75C7AA75C75553A5FEA253
:100F3B000092AFA2AF9200C2AF75C7AA75C7555347
:100F4B009FFEA20092AF22900194E4F0900103E087
:100F5B00FEA3E0FF25E0FFEE33FE2095047D01802C
:100F6B00027D007C00EEEF4DFF900103EEF0A3EF4E
:100F7B00F0A3E0FEA3E0FF25E0FFEE33FE20B0047C
:100F8B007D0180027D007C00EEEF4DFF900105EEB0
:100F9B00F0A3EFF0A3E0FEA3E0FF25E0FFEE33FEAE
:100FAB002087047D0180027D007C00EEEF4DFF90D9
:100FBB000107EEF0A3EFF0A3E0FEA3E0FF25E0FFB7
:100FCB00EE33FE2093047D0180027D007C00EEEF6A
:100FDB004DFF900109EEF0A3EFF0900193E4F09038
:100FEB000193E0FFC3940440030210C7E025E02403
:100FFB0003F582E43401F583E0FEA3E0FFF4700215
:10100B00EEF47057900193E0FF7E007401A807087F
:10101B008005C333CE33CED8F9FF900116E0FD7CAB
:10102B0000EEECFEEF5DFF7032900193E0FFF87481
:10103B0001088002C333D8FCFF900116E0FEEF4E8F
:10104B00FFF0900193E0FFF87401088002C333D8DE
:10105B00FCFF900194E0FEEF4EFFF0900193E0FF58
:10106B0025E02403F582E43401F583E0FEA3E0FFE1
:10107B004E7040900193E0FF7E007401A80708803A
:10108B0005C333CE33CED8F9FF900116E0FD7C00BB
:10109B00EEECFEEF5DFF601B900193E0FFF8741127
:1010AB00088002C333D8FCFFF4FF900116E0FEEF7B
:1010BB005EFFF0900193E004F0020FEA900194E0E0
:1010CB00FF22900199EFF0A2AF9200C2AF75C7AAB1
:1010DB0075C755439F01A20092AF759100E0FF12B7
:1010EB0005D110FA0610FF0711040800001107754F
:1010FB00A638800875A630800375A63075A70075D5
:10110B00AF04A2AF9200C2AF75C7AA75C75543A46F
:10111B0001A20092AF85AE1C05A6A2AF9200C2AF92
:10112B0075C7AA75C75543A401A20092AF85AE1D22
:10113B00900199E0FF1205D1114A08000011DBE57F
:10114B001C25E0FFE51D5401FEEF2EFF90019AF0E8
:10115B00E0FF54C0F51FE0543FF51EE024F2F0759C
:10116B00AF0C75A60175A700A2AF9200C2AFA2AFDC
:10117B009200C2AF75C7AA75C75543AA40A2009289
:10118B00AF75C7AA75C75543A401A20092AFE5AED0
:10119B00644B600BE5AE64526005E5AEB45328E5D5
:1011AB001EC3940F501AE51F6440600BE51F64804B
:1011BB006005E51FB4C01090019AE024F2F080079F
:1011CB0090019AE024FCF090019AE0FFC313F51C08
:1011DB0075C7AA75C755851C8475C7AA75C755856C
:1011EB001D85A2AF9200C2AF75C7AA75C755539F95
:1011FB00FEA20092AF22900189EFF090018CE4F0F7
:10120B00900189E0FFD3940540030212C1E0640210
:10121B006004E0B4030690018C7401F0900189E046
:10122B00FF741E2FF582E43401F583E0FF547FFF3A
:10123B0090018AF0E0FFC394125013E074242FF551
:10124B0082E43401F583E0FF90018AF08005900180
:10125B008AE4F0900189E0FF70077F0512144A8041
:10126B000A900189E0FF14FF12144A90018BE4F0FD
:10127B0090018BE0FFC394075034C286E090018A43
:10128B00E0FEA807088002C313D8FCFF30E00C90E7
:10129B00018CE0FF24FFB39290800990018CE0FF5A
:1012AB0024FF9290D28690018BE004F080C29001D3
:1012BB0089E0FF12141822787FE4F6D8FD90000025
:1012CB007FFF7E03E4F0A3DFFCDEFA7581230213BC
:1012DB001702000EE493A3F8E493A34003F68001F6
:1012EB00F208DFF48029E493A3F85407240CC8C355
:1012FB0033C4540F4420C8834004F456800146F68F
:10130B00DFE4800B010204081020408090147CE481
:10131B007E019360BCA3FF543F30E509541FFEE4EC
:10132B0093A360010ECF54C025E060A840B8E493AE
:10133B00A3FAE493A3F8E493A3C8C582C8CAC583F0
:10134B00CAF0A3C8C582C8CAC583CADFE9DEE78075
:10135B00BE900175EFF0538EF75389F0438901E08E
:10136B00FFE4FCFDFEA3E0F8A3E0F9A3E0FAA3E0A1
:10137B00FB12043D7B0C7A00790078001204C8A89C
:10138B0004A905AA06AB07C374FF9BF50F74FF9A5C
:10139B00F50EE499F50DE498F50CAF0FAE0EAD0D0F
:1013AB00FC78081205818F08E50FFFE50E7400FE2F
:1013BB00E50D7400FDE50C7400FC8F0A85088C8527
:1013CB000A8AC28DD28CD2A922C2D5E830E70FB2DD
:1013DB00D5E4C39BFBE49AFAE499F9E498F8EC3072
:1013EB00E717B2D512140A1204C8E4C39BFBE49AA4
:1013FB00FAE499F9E498F880031204C830D50DE4A7
:10140B00C39FFFE49EFEE49DFDE49CFC2290019BA8
:10141B00EFF0E0FF1205D1143800143B01143E022B
:10142B0014410314440414470500001449C28122DB
:10143B00C29222D28422D29122C28322C2802290D3
:10144B00019CEFF0E0FF1205D1146A00146D01143A
:10145B0070021473031476041479050000147BD204
:10146B008122D29222C28422C29122D28322D280A2
:10147B002242010000004201170000520124FE30FD
:10148B00EDF933DBDFF0FFFBF73F0D3DCFE701005D
:10149B0046011E20202020202041011D000090012C
:1014AB0090EEF0A3EFF0900190E0FEA3E0FFF58249
:1014BB008E83E493FE740193FFEEFF7E0090019206
:1014CB00F0E0FF2290011DE0FF04F01212019001E9
:1014DB001DE0FFD394054002E4F022D292D281C2E8
:0814EB0084C291D283D2802259
:00000001FF
