:020000040000FA
:0A0000000213172D2D45452D2D008C
:10000B000208BD7F07121134900117E4F0A3F090A2
:10001B00011BF0F5B1F5B2F5B3F5B4F5ACF5AD5395
:10002B00B1BF43B24053B3FE43B40153B3EF43B438
:10003B001053B1FD43B20253B3FB43B40453B1EFBE
:10004B0043B21053B3FD43B40253B1F743B2085359
:10005B00B1FE43B20153B1DF43B220D295D2B0D23D
:10006B0087D293D29490018EF0A3F090018EE0FE94
:10007B00A3E0FFE4FCFD7BFF7AFFF9F8D31205B791
:10008B00402CA286B3928690018EE0FEA3E0FF7E09
:10009B00005402FFEEC313FEEF13FFEE4F24FF924B
:1000AB0090E004F0700690018EE004F080BD53B137
:1000BB00FB43B20453B37F43B48012153B7F007EE6
:1000CB00007D007C00120C7BD292D281D284D29123
:1000DB00D283D280C29090018DE4F090018DE0FF2D
:1000EB00C394105015A286B39286E05402FFC3133B
:1000FB00FF24FF9290E004F080E130951130B00EB8
:10010B0090010B74FAF090011574FFF080059001CB
:10011B0015E4F09001761205FD000007D07F181250
:10012B0013B1D2AF90018EE4F0A3F090018EE0FEFC
:10013B00A3E0FFC39480EE9402500DE004F0700630
:10014B0090018EE004F080E3120FB990011CEFF0E8
:10015B0090011BE0FFA3E0FE6F7003020308C2AF28
:10016B00E0FF90011BF0A3700302030690010B74D8
:10017B0019F0C28590011CE012062E02A00102D4D8
:10018B000201960402330800000306900102E0FF0F
:10019B00707B90010CE0FEA3E0FF4E602C900102FF
:1001AB007401F090011904F0A3741CF0900100E4A9
:1001BB00F0A37454F0900119E0FEA3E0FFEE339529
:1001CB00E0FDFC1206A90203067FFB7E381214FE2B
:1001DB00900110EFF07FFC7E381214FE900111EFAE
:1001EB00F07FFD7E381214FE900112EFF07FFE7E41
:1001FB00381214FE900113EFF0900110E0FEA3E013
:10020B00FFEE3395E0FDFC1206A9020306900102F6
:10021B00E0FF64016003020306900119F0A3F09064
:10022B0001027402F0020306900102E0FF6003B4C6
:10023B000129900119E4F0A3F090010CF0A3F0A3B5
:10024B00F0A3F0900102F090010CE0FEA3E0FFEEB2
:10025B003395E0FDFC1206A9020306900102E0FFB4
:10026B0064026003020306900119F0A3F090010CE5
:10027B00F0A3F09001027403F090010EE4F0A3746C
:10028B00B4F090010EE0FEA3E0FFEE3395E0FDFC31
:10029B001206A98066900102E0FF705F90010CE0EE
:1002AB00FEA3E0FFC39408EE64809487504DE024D6
:1002BB003CF090010CE03400F0E0FEA3E0FFEE33E5
:1002CB0095E0FDFC1206A98032900102E0FF702B35
:1002DB0090010CE0FEA3E0FFD3943BEE648094808E
:1002EB004019E024C4F090010CE034FFF0E0FEA3D1
:1002FB00E0FFEE3395E0FDFC1206A9D2AF9001159D
:10030B00E0FF700302012F7FFB7E381214FE900179
:10031B0010EFF07FFC7E381214FE900111EFF07F8E
:10032B00FD7E381214FE900112EFF07FFE7E381224
:10033B0014FE900113EFF0900117E0FEA3E0FF7C99
:10034B00007D3C12044E900110E0FCA3E0FDEF2D6C
:10035B00FFEE3CFE900117F0A3EFF0900115E0FFCC
:10036B00F4601C900117E0FEA3E0FFEE3395E0FD77
:10037B00FC7BFF7AFF79FF78FFC31205CD700990E4
:10038B000110E4F0A3F08010900117E0FEA3E0FF52
:10039B00900110EEF0A3EFF0900110E0FD7FFB7EDB
:1003AB0038120E29900111E0FD7FFC7E38120E29C8
:1003BB00900112E0FD7FFD7E38120E29900113E0B3
:1003CB00FD7FFE7E38120E29900115E4F090011787
:1003DB00F0A3F0C297D29402012F22BB01068982AF
:1003EB008A83E0225002E722BBFE02E32289828A43
:1003FB0083E49322BB010CE58229F582E5833AF570
:10040B0083E0225006E92582F8E622BBFE06E925A9
:10041B0082F8E222E58229F582E5833AF583E493BB
:10042B0022F8BB010DE58229F582E5833AF583E8D5
:10043B00F0225006E92582C8F622BBFE05E925828B
:10044B00C8F222C2D5EC30E709B2D5E4C39DFDE476
:10045B009CFCEE30E715B2D5E4C39FFFE49EFE1281
:10046B000654C3E49DFDE49CFC800312065430D576
:10047B0007C3E49FFFE49EFE22C5F0F8A3E028F03B
:10048B00C5F0F8E582158270021583E038F022E89A
:10049B008FF0A4CC8BF0A42CFCE98EF0A42CFC8A5E
:1004AB00F0EDA42CFCEA8EF0A4CDA8F08BF0A42DDB
:1004BB00CC3825F0FDE98FF0A42CCD35F0FCEB8E7C
:1004CB00F0A4FEA9F0EB8FF0A4CFC5F02ECD39FE32
:1004DB00E43CFCEAA42DCE35F0FDE43CFC2275F0A7
:1004EB0008758200EF2FFFEE33FECD33CDCC33CC2E
:1004FB00C58233C5829BED9AEC99E58298400CF549
:10050B0082EE9BFEED9AFDEC99FC0FD5F0D6E4CE76
:10051B00FBE4CDFAE4CCF9A88222B800C1B90059AA
:10052B00BA002DEC8BF084CFCECDFCE5F0CBF97877
:10053B0018EF2FFFEE33FEED33FDEC33FCEB33FB0B
:10054B0010D703994004EB99FB0FD8E5E4F9FA2295
:10055B007818EF2FFFEE33FEED33FDEC33FCC93390
:10056B00C910D7059BE99A4007EC9BFCE99AF90F58
:10057B00D8E0E4C9FAE4CCFB2275F010EF2FFFEEC4
:10058B0033FEED33FDCC33CCC833C810D7079BEC0F
:10059B009AE899400AED9BFDEC9AFCE899F80FD587
:1005AB00F0DAE4CDFBE4CCFAE4C8F922EB9FF5F0EA
:1005BB00EA9E42F0E99D42F0EC6480C86480984565
:1005CB00F022EB9FF5F0EA9E42F0E99D42F0E89CA9
:1005DB0045F022E8600FECC313FCED13FDEE13FEA8
:1005EB00EF13FFD8F122ECF0A3EDF0A3EEF0A3EFA5
:1005FB00F022A8828583F0D083D0821206141206D3
:10060B0014120614120614E473E493A3C583C5F005
:10061B00C583C8C582C8F0A3C583C5F0C583C8C54B
:10062B0082C822D083D082F8E49370127401937045
:10063B000DA3A393F8740193F5828883E47374027A
:10064B00936860EFA3A3A380DFBC000BBE0029EF70
:10065B008DF084FFADF022E4CCF875F008EF2FFF9E
:10066B00EE33FEEC33FCEE9DEC984005FCEE9DFE6C
:10067B000FD5F0E9E4CEFD22EDF8F5F0EE8420D2B3
:10068B001CFEADF075F008EF2FFFED33FD40079822
:10069B005006D5F0F222C398FD0FD5F0EA22900157
:1006AB00401205F19001497405F0900148E4F09077
:1006BB000148E0FFC3648094865019E03395E0FE57
:1006CB00741E2FF58274013EF583E4F0900148E02F
:1006DB0004F080DB7F007E007D007C00900140E019
:1006EB00F8A3E0F9A3E0FAA3E0FBC31205B770038C
:1006FB000208BC7B107A0E79007800900140E0FC78
:10070B00A3E0FDA3E0FEA3E0FF1214297B107A0EF9
:10071B007900780012049AA804A905AA06AB0790E1
:10072B000140E0FCA3E0FDA3E0FEA3E0FFC39BFFC1
:10073B00EE9AFEED99FDEC98FC7B3C7A0079007803
:10074B00001214297B647A007900780012049AC095
:10075B0004C005C006C0077B107A0E7900780090A4
:10076B000140E0FCA3E0FDA3E0FEA3E0FF1214298F
:10077B007B107A277900780012049AA804A905AA9D
:10078B0006AB07D007D006D005D004EB2FFFEA3E0F
:10079B00FEE93DFDE83CFCC004C005C006C0077B7C
:1007AB003C7A0079007800900140E0FCA3E0FDA3C7
:1007BB00E0FEA3E0FF1214297B3C7A00790078005D
:1007CB0012049AA804A905AA06AB07900140E0FC05
:1007DB00A3E0FDA3E0FEA3E0FFC39BFBEE9AFAEDC3
:1007EB0099F9EC98F8D007D006D005D004EB2FFF81
:1007FB00EA3EFEE93DFDE83CFC9001401205F17B31
:10080B000A7A0079007800900140E0FCA3E0FDA398
:10081B00E0FEA3E0FF1214297B0A7A00790078002E
:10082B0012049AA804A905AA06AB07900140E0FCA4
:10083B00A3E0FDA3E0FEA3E0FFC39BFFEE9AFEED5A
:10084B0099FDEC98FCA31205F1900144E0FCA3E0A8
:10085B00FDA3E0FEA3E0FF900149E0FEFD3395E030
:10086B00FC741E2DF58274013CF583EFF090014072
:10087B00E0FCA3E0FDA3E0FEA3E0FF7B0A7A007996
:10088B000078001214299001401205F1900149E003
:10089B0014FFF0D36480947F4017900140E0FCA3D9
:1008AB00E0FDA3E0FEA3E0FFEC4D4E4F600302081A
:1008BB000A22C0E0C0F0C083C082C0D075D000C097
:1008CB0000C001C002C003C004C005C006C007853C
:1008DB00912275910085088C850A8AC28D12152488
:1008EB00900101E004F07006900100E004F090012B
:1008FB000BE0FF600814F0E0FF7002D2859001005E
:10090B00E0FEA3E0FFD39450EE6480948150030289
:10091B000A08900100E4F0A3F0A3E0FF7003020AC1
:10092B00089001147401F0900119E0FEA3E0FF4E52
:10093B00604AE024FFF0900119E034FFF0E0FEA3E1
:10094B00E0FF4E6003020A0890010CE0FEA3E0FFFB
:10095B004E600D9001027402F0C294D297020A0805
:10096B0090010EE0FEA3E0FF4E700890010EF0A385
:10097B0074B4F09001027403F0020A0890010CE0C9
:10098B00FEA3E0FF4E6043D297C294E024FFF090A9
:10099B00010CE034FFF0900118E004F070069001B8
:1009AB0017E004F090010CE0FEA3E0FF4E704EA3A5
:1009BB00E0FEA3E0FF4E700890010EF0A374B4F0BC
:1009CB00C2979001027403F0803390010EE0FEA3F6
:1009DB00E0FF4E6024C297C294E024FFF090010E1A
:1009EB00E034FFF0E0FEA3E0FF4E7011D2949001D3
:1009FB0002F090011504F08004C297D29490011478
:100A0B00E0FF6061E4F0900102E0FFB4021390019B
:100A1B000CE0FEA3E0FFEE3395E0FDFC1206A9808F
:100A2B0044900102E0FFB40113900119E0FEA3E032
:100A3B00FFEE3395E0FDFC1206A98029900102E040
:100A4B00FFB4031390010EE0FEA3E0FFEE3395E03D
:100A5B00FDFC1206A9800E900102E0FF7007FFFE5D
:100A6B00FDFC1206A9E5226013A2AF9200C2AF757E
:100A7B00C7AA75C755759101A20092AFD007D006D2
:100A8B00D005D004D003D002D001D000D0D0D0827A
:100A9B00D083D0F0D0E032900136EBF0A3EAF0A394
:100AAB00E9F090013EE4F0A3F090013FE0FFC36456
:100ABB00809486501AE03395E0FE741E2FF58274F5
:100ACB00013EF5837420F090013FE004F080DA9052
:100ADB000136E0FBA3E0FAA3E0F9EA494B7003020D
:100AEB000C7A90013FE4F0900136E0FBA3E0FAA30F
:100AFB00E0F91203E6FF90013DF07003020C289021
:100B0B00013FE0FFC3648094864003020C289001F0
:100B1B003EE4F090013DE0FF942F400CE0943A50FE
:100B2B0007A37430F0020BF290013DE0FFD3946009
:100B3B0040047F0180027F0090013DE0FEC394677B
:100B4B0050047E0180027E00EE5FFF600990013E43
:100B5B007457F0020BF290013DE0FFD39440400438
:100B6B007F0180027F0090013DE0FEC3944750045B
:100B7B007E0180027E00EE5FFF600890013E7437BD
:100B8B00F0806490013DE0FFB42D06A3741DF0804E
:100B9B005690013DE0FFB46806A37457F08048906F
:100BAB00013DE0FFB44806A37437F0803A90013D55
:100BBB00E0FFB42E2A90013FE0FF700890013974DA
:100BCB00FFF0804C90013FE0FF3395E0FE74382F2F
:100BDB00F58274013EF583E0FF4480FFF080319095
:100BEB00013DE0FFB4202990013EE0FF90013DE084
:100BFB00FEC39FFF90013FE0FEFD3395E0FC74398F
:100C0B002DF58274013CF583EFF090013FE004F089
:100C1B00900137E475F001120484020AF290013D51
:100C2B007405F090013FE0FF14FF90013EF090013E
:100C3B003EE0FFD36480947F4035E03395E0FE7453
:100C4B00392FF58274013EF583E0FF90013DE0FE04
:100C5B00FD3395E0FC741E2DF58274013CF583EF9A
:100C6B00F090013EE014F090013DE014F080BF22C3
:100C7B009001671205F190016DE4F07FC17EBD7D9F
:100C8B00F07CFF900167E0F8A3E0F9A3E0FAA3E0A2
:100C9B00FBC31205B740197F3F7E427D0F7C00904E
:100CAB000167E0F8A3E0A3E0A3E0D31205B7400A85
:100CBB007BFF7A007903120AA22290016CE4F09078
:100CCB00016CE0FFC3648094865019E03395E0FE1D
:100CDB00741E2FF58274013EF583E4F090016CE0F5
:100CEB0004F080DB7F007E007D007C00900167E0DC
:100CFB00F8A3E0F9A3E0FAA3E0FBC31205B7700376
:100D0B00020E287F007E007D007C00900167E0F8DA
:100D1B00A3E0A3E0A3E0C31205B7502590016D74C7
:100D2B0001F0900167E0FCA3E0FDA3E0FEA3E0FF70
:100D3B007BFF7AFF79FF78FF12049A900167120507
:100D4B00F190016CE4F090016CE0FFC36480948639
:100D5B004003020DFB7B0A7A007900780090016753
:100D6B00E0FCA3E0FDA3E0FEA3E0FF1214297B0A45
:100D7B007A007900780012049AAB07900167E0FCC7
:100D8B00A3E0FDA3E0FEA3E0FFC39BFFA3F0E0FF06
:100D9B00A3E0FEFD3395E0FCC374059DFDE49CFCD4
:100DAB00741E2DF58274013CF583EFF0900167E022
:100DBB00FCA3E0FDA3E0FEA3E0FF7B0A7A00790031
:100DCB0078001214299001671205F17F007E007DD7
:100DDB00007C00900167E0F8A3E0F9A3E0FAA3E040
:100DEB00FBC31205B7600990016CE004F0020D51D2
:100DFB0090016DE0FF602690016CE0FFC36480946E
:100E0B0086501AE03395E0FEC374059FFFE49EFE07
:100E1B00741E2FF58274013EF5837410F02290013D
:100E2B006EEEF0A3EFF0A3EDF0A3E4F090016EE013
:100E3B00FEA3E0FF7807CEC313CE13D8F9FF7807D4
:100E4B00C333CE33CED8F9FF900172EEF0A3EFF09F
:100E5B00900171E4F0900171E0FFC394805032E097
:100E6B007E00A3E0FCA3E0FDEF2DFFEE3CFE121491
:100E7B00FE900174EFF0E0FF900171E0FE74802EA4
:100E8B00F582E43400F583EFF0900171E004F0801B
:100E9B00C4900170E0FF90016EE0FCA3E0FD7C00CC
:100EAB00547FFD74802DF58274003CF583EFF09038
:100EBB000172E0FEA3E0FFF5A6900172E0FEA3E055
:100ECB00FFEEFF7E00F5A775AEFFA2AF9200C2AF9B
:100EDB0075C7AA75C755439F01A20092AFA2AF92E7
:100EEB0000C2AF75C7AA75C75543A501A20092AF43
:100EFB0075AF22A2AF9200C2AF75C7AA75C7554393
:100F0B00A401A20092AFA2AF9200C2AF75C7AA759F
:100F1B00C755439F01A20092AFA2AF9200C2AF751B
:100F2B00C7AA75C75543A501A20092AF75AF219013
:100F3B000171E4F0900171E0FFC394805049A3E08C
:100F4B00FEA3E0FF900171E0FEEF2EF5A6A3E0FEFD
:100F5B00A3E0FFEEFF7E00F5A7900171E0FF748028
:100F6B002FF582E43400F583E0FFF5AEA2AF9200DB
:100F7B00C2AF75C7AA75C75543A401A20092AF9023
:100F8B000171E004F080ADA2AF9200C2AF75C7AAA9
:100F9B0075C75553A5FEA20092AFA2AF9200C2AF88
:100FAB0075C7AA75C755539FFEA20092AF22900139
:100FBB0094E4F0900103E0FEA3E0FF25E0FFEE33A5
:100FCB00FE2095047D0180027D007C00EEEF4DFF3D
:100FDB00900103EEF0A3EFF0A3E0FEA3E0FF25E00A
:100FEB00FFEE33FE20B0047D0180027D007C00EE1D
:100FFB00EF4DFF900105EEF0A3EFF0A3E0FEA3E0B1
:10100B00FF25E0FFEE33FE2087047D0180027D008B
:10101B007C00EEEF4DFF900107EEF0A3EFF0A3E0A5
:10102B00FEA3E0FF25E0FFEE33FE2093047D01805D
:10103B00027D007C00EEEF4DFF900109EEF0A3EF77
:10104B00F0900193E4F0900193E0FFC3940440030C
:10105B0002112EE025E02403F582E43401F583E050
:10106B00FEA3E0FFF47002EEF47057900193E0FFE3
:10107B007E007401A807088005C333CE33CED8F9A0
:10108B00FF900116E0FD7C00EEECFEEF5DFF703291
:10109B00900193E0FFF87401088002C333D8FCFF82
:1010AB00900116E0FEEF4EFFF0900193E0FFF87415
:1010BB0001088002C333D8FCFF900194E0FEEF4E91
:1010CB00FFF0900193E0FF25E02403F582E4340167
:1010DB00F583E0FEA3E0FF4E7040900193E0FF7EAE
:1010EB00007401A807088005C333CE33CED8F9FFAF
:1010FB00900116E0FD7C00EEECFEEF5DFF601B90B7
:10110B000193E0FFF87411088002C333D8FCFFF49D
:10111B00FF900116E0FEEF5EFFF0900193E004F00C
:10112B00021051900194E0FF22900199EFF0A2AFD1
:10113B009200C2AF75C7AA75C755439F01A2009213
:10114B00AF759100E0FF12062E11610611660711B3
:10115B006B080000116E75A638800875A6308003E9
:10116B0075A63075A70075AF04A2AF9200C2AF751C
:10117B00C7AA75C75543A401A20092AF85AE1C0543
:10118B00A6A2AF9200C2AF75C7AA75C75543A401FB
:10119B00A20092AF85AE1D900199E0FF12062E11B1
:1011AB00B10800001242E51C25E0FFE51D5401FECD
:1011BB00EF2EFF90019AF0E0FF54C0F51FE0543F73
:1011CB00F51EE024F2F075AF0C75A60175A700A211
:1011DB00AF9200C2AFA2AF9200C2AF75C7AA75C7DC
:1011EB005543AA40A20092AF75C7AA75C75543A431
:1011FB0001A20092AFE5AE644B600BE5AE645260AA
:10120B0005E5AEB45328E51EC3940F501AE51F64D1
:10121B0040600BE51F64806005E51FB4C0109001B2
:10122B009AE024F2F0800790019AE024FCF0900100
:10123B009AE0FFC313F51C75C7AA75C755851C84A7
:10124B0075C7AA75C755851D85A2AF9200C2AF752C
:10125B00C7AA75C755539FFEA20092AF2290018972
:10126B00EFF090018C7401F0900189E0FFD39405AD
:10127B004003021316E0741E2FF582E43401F5834C
:10128B00E0FF547FFF90018AF0E0FFC394125013EC
:10129B00E074242FF582E43401F583E0FF90018A9A
:1012AB00F0800590018AE4F0900189E0FF70077FE0
:1012BB000512149F800A900189E0FF14FF12149FFE
:1012CB0090018BE4F090018BE0FFC394075034C284
:1012DB0082E090018AE0FEA807088002C313D8FCC5
:1012EB00FF30E00C90018CE0FF24FFB3929080095B
:1012FB0090018CE0FF24FF9290D28290018BE0044E
:10130B00F080C2900189E0FF12146D22787FE4F621
:10131B00D8FD9000007FFF7E03E4F0A3DFFCDEFA34
:10132B0075812302136C02000EE493A3F8E493A3DC
:10133B004003F68001F208DFF48029E493A3F8540C
:10134B0007240CC8C333C4540F4420C8834004F48F
:10135B0056800146F6DFE4800B01020408102040A2
:10136B00809014D1E47E019360BCA3FF543F30E521
:10137B0009541FFEE493A360010ECF54C025E06017
:10138B00A840B8E493A3FAE493A3F8E493A3C8C5E5
:10139B0082C8CAC583CAF0A3C8C582C8CAC583CAD6
:1013AB00DFE9DEE780BE900175EFF0538EF75389CE
:1013BB00F0438901E0FFE4FCFDFEA3E0F8A3E0F9B4
:1013CB00A3E0FAA3E0FB12049A7B0C7A0079007875
:1013DB0000120525A804A905AA06AB07C374FF9B39
:1013EB00F50F74FF9AF50EE499F50DE498F50CAF33
:1013FB000FAE0EAD0DFC78081205DE8F08E50FFF62
:10140B00E50E7400FEE50D7400FDE50C7400FC8F19
:10141B000A85088C850A8AC28DD28CD2A922C2D5A4
:10142B00E830E70FB2D5E4C39BFBE49AFAE499F9F1
:10143B00E498F8EC30E717B2D512145F120525E4E7
:10144B00C39BFBE49AFAE499F9E498F8800312053C
:10145B002530D50DE4C39FFFE49EFEE49DFDE49C87
:10146B00FC2290019BEFF0E0FF12062E148D00146E
:10147B009001149302149603149904149C05000014
:10148B00149ED28122D29222D28422D29122D28352
:10149B0022D2802290019CEFF0E0FF12062E14BFA7
:1014AB000014C20114C50214C80314CB0414CE05D6
:1014BB00000014D0C28122C29222C28422C2912285
:1014CB00C28322C2802242010000004201170000A9
:1014DB00520124FE30EDF933DBDFF0FFFBF73F0D5C
:1014EB003DCFE7010046011E202020202020410196
:1014FB001D0000900190EEF0A3EFF0900190E0FE44
:10150B00A3E0FFF5828E83E493FE740193FFEEFF5D
:10151B007E00900192F0E0FF2290011DE0FF04F0AD
:10152B0012126890011DE0FFD394054002E4F022F3
:0D153B00C292C281C284C291C283C28022CA
:00000001FF
