:020000040000FA
:0A0000000214812D2D45452D2D0021
:10000B000209037F0712117D12168E7F007E0412E8
:10001B0012B1900117E4F0A3F090011BF0F5B1F5CC
:10002B00B2F5B3F5B4F5ACF5AD53B1BF43B2405334
:10003B00B3FE43B40153B3EF43B41053B1FD43B21A
:10004B000253B3FB43B40453B1EF43B21053B3FDAC
:10005B0043B40253B1F743B20853B1FE43B2015359
:10006B00B1DF43B220D295D2B0D287D293D2949043
:10007B00018EF0A3F090018EE0FEA3E0FFE4FCFD07
:10008B007BFF7AFFF9F8D31205D0402CA286B392EE
:10009B008690018EE0FEA3E0FF7E005402FFEEC3CC
:1000AB0013FEEF13FFEE4F24FF9290E004F0700667
:1000BB0090018EE004F080BD53B1FB43B20453B307
:1000CB007F43B4801216BE7F007E007D007C001241
:1000DB000CC4C292C281D284D291C283C280C2901C
:1000EB0090018DE4F090018DE0FFC394105015A2A8
:1000FB0086B39286E05402FFC313FF24FF9290E075
:10010B0004F080E130951130B00E90010B74FAF0D1
:10011B0090011574FFF08005900115E4F0900176C5
:10012B00120616000007D07F1812151BD2AF9001D4
:10013B008EE4F0A3F090018EE0FEA3E0FFC3948069
:10014B00EE9402500DE004F0700690018EE004F086
:10015B0080E312100290011CEFF090011BE0FFA353
:10016B00E0FE6F7003020321C2AFE0FF90011BF0B2
:10017B00A3700302031F90010B7419F0C285900149
:10018B001CE012064702B90102ED02023D0401A078
:10019B00080000031F900102E0FF707B90010CE050
:1001AB00FEA3E0FF4E602C9001027401F090011948
:1001BB0004F0A3741CF0900100E4F0A37454F090CD
:1001CB000119E0FEA3E0FFEE3395E0FDFC1206EF14
:1001DB0002031F7FFB7E38121668900110EFF07F31
:1001EB00FC7E38121668900111EFF07FFD7E3812FD
:1001FB001668900112EFF07FFE7E381216689001A0
:10020B0013EFF0900110E0FEA3E0FFEE3395E0FD5D
:10021B00FC1206EF02031F900102E0FF6401600372
:10022B0002031F900119F0A3F09001027402F00277
:10023B00031F900102E0FF6003B40129900119E450
:10024B00F0A3F090010CF0A3F0A3F0A3F090010247
:10025B00F090010CE0FEA3E0FFEE3395E0FDFC1205
:10026B0006EF02031F900102E0FFB4022F90011969
:10027B00E4F0A3F090010CF0A3F09001027403F0F2
:10028B0090010EE4F0A374B4F090010EE0FEA3E035
:10029B00FFEE3395E0FDFC1206EF8078900102E053
:1002AB00FF6403706F90010EF0A304F08066900161
:1002BB0002E0FF705F90010CE0FEA3E0FFC3940827
:1002CB00EE64809487504DE0243CF090010CE034B8
:1002DB0000F0E0FEA3E0FFEE3395E0FDFC1206EF2D
:1002EB008032900102E0FF702B90010CE0FEA3E046
:1002FB00FFD3943BEE648094804019E024C4F090CB
:10030B00010CE034FFF0E0FEA3E0FFEE3395E0FDDF
:10031B00FC1206EFD2AF900115E0FF70030201391A
:10032B007FFB7E38121668900110EFF07FFC7E3851
:10033B00121668900111EFF07FFD7E38121668904F
:10034B000112EFF07FFE7E38121668900113EFF06A
:10035B00900117E0FEA3E0FF7C007D3C1204679048
:10036B000110E0FCA3E0FDEF2DFFEE3CFE9001172A
:10037B00F0A3EFF0900115E0FFF4601C900117E083
:10038B00FEA3E0FFEE3395E0FDFC7BFF7AFF79FFE8
:10039B0078FFC31205E67009900110E4F0A3F0801A
:1003AB0010900117E0FEA3E0FF900110EEF0A3EF19
:1003BB00F0900110E0FD7FFB7E38120E7290011160
:1003CB00E0FD7FFC7E38120E72900112E0FD7FFD86
:1003DB007E38120E72900113E0FD7FFE7E38120EF6
:1003EB0072900115E4F0900117F0A3F0C297D2942C
:1003FB0002013922BB010689828A83E0225002E77F
:10040B0022BBFE02E32289828A83E49322BB010C86
:10041B00E58229F582E5833AF583E0225006E9254A
:10042B0082F8E622BBFE06E92582F8E222E5822964
:10043B00F582E5833AF583E49322F8BB010DE5825F
:10044B0029F582E5833AF583E8F0225006E9258207
:10045B00C8F622BBFE05E92582C8F222C2D5EC30D4
:10046B00E709B2D5E4C39DFDE49CFCEE30E715B281
:10047B00D5E4C39FFFE49EFE12069AC3E49DFDE400
:10048B009CFC800312069A30D507C3E49FFFE49EC1
:10049B00FE22C5F0F8A3E028F0C5F0F8E58215823E
:1004AB0070021583E038F022E88FF0A4CC8BF0A417
:1004BB002CFCE98EF0A42CFC8AF0EDA42CFCEA8E2B
:1004CB00F0A4CDA8F08BF0A42DCC3825F0FDE98F4E
:1004DB00F0A42CCD35F0FCEB8EF0A4FEA9F0EB8F45
:1004EB00F0A4CFC5F02ECD39FEE43CFCEAA42DCE12
:1004FB0035F0FDE43CFC2275F008758200EF2FFF10
:10050B00EE33FECD33CDCC33CCC58233C5829BEDE0
:10051B009AEC99E58298400CF582EE9BFEED9AFDE4
:10052B00EC99FC0FD5F0D6E4CEFBE4CDFAE4CCF994
:10053B00A88222B800C1B90059BA002DEC8BF08407
:10054B00CFCECDFCE5F0CBF97818EF2FFFEE33FED5
:10055B00ED33FDEC33FCEB33FB10D703994004EB8D
:10056B0099FB0FD8E5E4F9FA227818EF2FFFEE3359
:10057B00FEED33FDEC33FCC933C910D7059BE99A6B
:10058B004007EC9BFCE99AF90FD8E0E4C9FAE4CCFC
:10059B00FB2275F010EF2FFFEE33FEED33FDCC3366
:1005AB00CCC833C810D7079BEC9AE899400AED9B4F
:1005BB00FDEC9AFCE899F80FD5F0DAE4CDFBE4CC2E
:1005CB00FAE4C8F922EB9FF5F0EA9E42F0E99D426E
:1005DB00F0EC6480C864809845F022EB9FF5F0EA5C
:1005EB009E42F0E99D42F0E89C45F022E8600FEC5A
:1005FB00C313FCED13FDEE13FEEF13FFD8F122EC4A
:10060B00F0A3EDF0A3EEF0A3EFF022A8828583F028
:10061B00D083D08212062D12062D12062D12062D16
:10062B00E473E493A3C583C5F0C583C8C582C8F042
:10063B00A3C583C5F0C583C8C582C822D083D08229
:10064B00F8E4937012740193700DA3A393F87401E3
:10065B0093F5828883E4737402936860EFA3A3A37A
:10066B0080DFD083D082F8E4937012740193700D05
:10067B00A3A393F8740193F5828883E473740293B4
:10068B00B5F0067403936860E9A3A3A3A380D8BC59
:10069B00000BBE0029EF8DF084FFADF022E4CCF807
:1006AB0075F008EF2FFFEE33FEEC33FCEE9DEC986C
:1006BB004005FCEE9DFE0FD5F0E9E4CEFD22EDF8F2
:1006CB00F5F0EE8420D21CFEADF075F008EF2FFF95
:1006DB00ED33FD4007985006D5F0F222C398FD0F7D
:1006EB00D5F0EA2290014012060A9001497405F0F8
:1006FB00900148E4F0900148E0FFC3648094865079
:10070B0019E03395E0FE741E2FF58274013EF583DC
:10071B00E4F0900148E004F080DB7F007E007D0078
:10072B007C00900140E0F8A3E0F9A3E0FAA3E0FB22
:10073B00C31205D070030209027B107A0E79007880
:10074B0000900140E0FCA3E0FDA3E0FEA3E0FF125C
:10075B0015937B107A0E790078001204B3A804A9C4
:10076B0005AA06AB07900140E0FCA3E0FDA3E0FE69
:10077B00A3E0FFC39BFFEE9AFEED99FDEC98FC7B8B
:10078B003C7A00790078001215937B647A0079002B
:10079B0078001204B3C004C005C006C0077B107AF2
:1007AB000E79007800900140E0FCA3E0FDA3E0FE91
:1007BB00A3E0FF1215937B107A27790078001204BF
:1007CB00B3A804A905AA06AB07D007D006D005D05D
:1007DB0004EB2FFFEA3EFEE93DFDE83CFCC004C004
:1007EB0005C006C0077B3C7A007900780090014079
:1007FB00E0FCA3E0FDA3E0FEA3E0FF1215937B3C1E
:10080B007A00790078001204B3A804A905AA06ABF4
:10081B0007900140E0FCA3E0FDA3E0FEA3E0FFC3D3
:10082B009BFBEE9AFAED99F9EC98F8D007D006D02D
:10083B0005D004EB2FFFEA3EFEE93DFDE83CFC90C2
:10084B00014012060A7B0A7A007900780090014079
:10085B00E0FCA3E0FDA3E0FEA3E0FF1215937B0AEF
:10086B007A00790078001204B3A804A905AA06AB94
:10087B0007900140E0FCA3E0FDA3E0FEA3E0FFC373
:10088B009BFFEE9AFEED99FDEC98FCA312060A90E5
:10089B000144E0FCA3E0FDA3E0FEA3E0FF900149CF
:1008AB00E0FEFD3395E0FC741E2DF58274013CF5E2
:1008BB0083EFF0900140E0FCA3E0FDA3E0FEA3E09A
:1008CB00FF7B0A7A00790078001215939001401291
:1008DB00060A900149E014FFF0D36480947F40171F
:1008EB00900140E0FCA3E0FDA3E0FEA3E0FFEC4D94
:1008FB004E4F600302085022C0E0C0F0C083C0829C
:10090B00C0D075D000C000C001C002C003C004C07D
:10091B0005C006C00785912275910085088C850A54
:10092B008AC28D1216A7900101E004F070069001A7
:10093B0000E004F090010BE0FF600814F0E0FF70A2
:10094B0002D285900100E0FEA3E0FFD39450EE6449
:10095B008094815003020A4E900100E4F0A3F0A3AF
:10096B00E0FF7003020A4E9001147401F09001191C
:10097B00E0FEA3E0FF4E604AE024FFF0900119E097
:10098B0034FFF0E0FEA3E0FF4E6003020A4E90013D
:10099B000CE0FEA3E0FF4E600D9001027402F0C26A
:1009AB0094D297020A4E90010EE0FEA3E0FF4E7028
:1009BB000890010EF0A374B4F09001027403F002DE
:1009CB000A4E90010CE0FEA3E0FF4E6043D297C2AB
:1009DB0094E024FFF090010CE034FFF0900118E05C
:1009EB0004F07006900117E004F090010CE0FEA3F8
:1009FB00E0FF4E704EA3E0FEA3E0FF4E70089001A7
:100A0B000EF0A374B4F0C2979001027403F080331C
:100A1B0090010EE0FEA3E0FF4E6024C297C294E06B
:100A2B0024FFF090010EE034FFF0E0FEA3E0FF4E58
:100A3B007011D294900102F090011504F08004C261
:100A4B0097D294900114E0FF6061E4F0900102E012
:100A5B00FFB4021390010CE0FEA3E0FFEE3395E030
:100A6B00FDFC1206EF8044900102E0FFB4011390ED
:100A7B000119E0FEA3E0FFEE3395E0FDFC1206EF5B
:100A8B008029900102E0FFB4031390010EE0FEA356
:100A9B00E0FFEE3395E0FDFC1206EF800E900102B5
:100AAB00E0FF7007FFFEFDFC1206EF12168EE5222B
:100ABB006013A2AF9200C2AF75C7AA75C7557591E7
:100ACB0001A20092AFD007D006D005D004D003D03E
:100ADB0002D001D000D0D0D082D083D0F0D0E03281
:100AEB00900136EBF0A3EAF0A3E9F090013EE4F0BD
:100AFB00A3F090013FE0FFC364809486501AE0336B
:100B0B0095E0FE741E2FF58274013EF5837420F080
:100B1B0090013FE004F080DA900136E0FBA3E0FAAD
:100B2B00A3E0F9EA494B7003020CC390013FE4F0D8
:100B3B00900136E0FBA3E0FAA3E0F91203FFFF906C
:100B4B00013DF07003020C7190013FE0FFC3648024
:100B5B0094864003020C7190013EE4F090013DE05D
:100B6B00FF942F400CE0943A5007A37430F0020C22
:100B7B003B90013DE0FFD3946040047F0180027FF6
:100B8B000090013DE0FEC3946750047E0180027E1D
:100B9B0000EE5FFF600990013E7457F0020C3B9032
:100BAB00013DE0FFD3944040047F0180027F009021
:100BBB00013DE0FEC3944750047E0180027E00EEAF
:100BCB005FFF600890013E7437F0806490013DE058
:100BDB00FFB42D06A3741DF0805690013DE0FFB4C9
:100BEB006806A37457F0804890013DE0FFB44806B7
:100BFB00A37437F0803A90013DE0FFB42E2A9001A8
:100C0B003FE0FF700890013974FFF0804C90013F7A
:100C1B00E0FF3395E0FE74382FF58274013EF583C7
:100C2B00E0FF4480FFF0803190013DE0FFB42029CC
:100C3B0090013EE0FF90013DE0FEC39FFF90013F1E
:100C4B00E0FEFD3395E0FC74392DF58274013CF523
:100C5B0083EFF090013FE004F0900137E475F00171
:100C6B0012049D020B3B90013D7405F090013FE097
:100C7B00FF14FF90013EF090013EE0FFD36480949F
:100C8B007F4035E03395E0FE74392FF58274013ED9
:100C9B00F583E0FF90013DE0FEFD3395E0FC741E13
:100CAB002DF58274013CF583EFF090013EE014F0DA
:100CBB0090013DE014F080BF2290016712060A906C
:100CCB00016DE4F07FC17EBD7DF07CFF900167E09C
:100CDB00F8A3E0F9A3E0FAA3E0FBC31205D0401997
:100CEB007F3F7E427D0F7C00900167E0F8A3E0A37D
:100CFB00E0A3E0D31205D0400A7BFF7A0079031200
:100D0B000AEB2290016CE4F090016CE0FFC364806D
:100D1B0094865019E03395E0FE741E2FF582740112
:100D2B003EF583E4F090016CE004F080DB7F007E05
:100D3B00007D007C00900167E0F8A3E0F9A3E0FAE6
:100D4B00A3E0FBC31205D07003020E717F007E007F
:100D5B007D007C00900167E0F8A3E0A3E0A3E0C373
:100D6B001205D0502590016D7401F0900167E0FCE5
:100D7B00A3E0FDA3E0FEA3E0FF7BFF7AFF79FF7802
:100D8B00FF1204B390016712060A90016CE4F09015
:100D9B00016CE0FFC3648094864003020E447B0A1F
:100DAB007A0079007800900167E0FCA3E0FDA3E0F6
:100DBB00FEA3E0FF1215937B0A7A007900780012EC
:100DCB0004B3AB07900167E0FCA3E0FDA3E0FEA337
:100DDB00E0FFC39BFFA3F0E0FFA3E0FEFD3395E034
:100DEB00FCC374059DFDE49CFC741E2DF5827401FF
:100DFB003CF583EFF0900167E0FCA3E0FDA3E0FE80
:100E0B00A3E0FF7B0A7A007900780012159390011A
:100E1B006712060A7F007E007D007C00900167E070
:100E2B00F8A3E0F9A3E0FAA3E0FBC31205D0600935
:100E3B0090016CE004F0020D9A90016DE0FF6026CA
:100E4B0090016CE0FFC364809486501AE03395E008
:100E5B00FEC374059FFFE49EFE741E2FF582740182
:100E6B003EF5837410F02290016EEEF0A3EFF0A329
:100E7B00EDF0A3E4F090016EE0FEA3E0FF7807CE67
:100E8B00C313CE13D8F9FF7807C333CE33CED8F9BB
:100E9B00FF900172EEF0A3EFF0900171E4F090017E
:100EAB0071E0FFC394805032E07E00A3E0FCA3E02E
:100EBB00FDEF2DFFEE3CFE121668900174EFF0E093
:100ECB00FF900171E0FE74802EF582E43400F5830F
:100EDB00EFF0900171E004F080C4900170E0FF909E
:100EEB00016EE0FCA3E0FD7C00547FFD74802DF5CA
:100EFB008274003CF583EFF0900172E0FEA3E0FFFB
:100F0B00F5A6900172E0FEA3E0FFEEFF7E00F5A7D1
:100F1B0075AEFFA2AF9200C2AF75C7AA75C7554396
:100F2B009F01A20092AFA2AF9200C2AF75C7AA7584
:100F3B00C75543A501A20092AF75AF22A2AF920095
:100F4B00C2AF75C7AA75C75543A401A20092AFA241
:100F5B00AF9200C2AF75C7AA75C755439F01A200D8
:100F6B0092AFA2AF9200C2AF75C7AA75C75543A582
:100F7B0001A20092AF75AF21900171E4F090017165
:100F8B00E0FFC394805049A3E0FEA3E0FF90017102
:100F9B00E0FEEF2EF5A6A3E0FEA3E0FFEEFF7E0042
:100FAB00F5A7900171E0FF74802FF582E43400F512
:100FBB0083E0FFF5AEA2AF9200C2AF75C7AA75C7AB
:100FCB005543A401A20092AF900171E004F080ADF3
:100FDB00A2AF9200C2AF75C7AA75C75553A5FEA2A3
:100FEB000092AFA2AF9200C2AF75C7AA75C7555397
:100FFB009FFEA20092AF22900194E4F0900103E0D7
:10100B00FEA3E0FF25E0FFEE33FE2095047D01807B
:10101B00027D007C00EEEF4DFF900103EEF0A3EF9D
:10102B00F0A3E0FEA3E0FF25E0FFEE33FE20B004CB
:10103B007D0180027D007C00EEEF4DFF900105EEFF
:10104B00F0A3EFF0A3E0FEA3E0FF25E0FFEE33FEFD
:10105B002087047D0180027D007C00EEEF4DFF9028
:10106B000107EEF0A3EFF0A3E0FEA3E0FF25E0FF06
:10107B00EE33FE2093047D0180027D007C00EEEFB9
:10108B004DFF900109EEF0A3EFF0900193E4F09087
:10109B000193E0FFC394044003021177E025E024A1
:1010AB0003F582E43401F583E0FEA3E0FFF4700264
:1010BB00EEF47057900193E0FF7E007401A80708CF
:1010CB008005C333CE33CED8F9FF900116E0FD7CFB
:1010DB0000EEECFEEF5DFF7032900193E0FFF874D1
:1010EB0001088002C333D8FCFF900116E0FEEF4EDF
:1010FB00FFF0900193E0FFF87401088002C333D82E
:10110B00FCFF900194E0FEEF4EFFF0900193E0FFA7
:10111B0025E02403F582E43401F583E0FEA3E0FF30
:10112B004E7040900193E0FF7E007401A807088089
:10113B0005C333CE33CED8F9FF900116E0FD7C000A
:10114B00EEECFEEF5DFF601B900193E0FFF8741176
:10115B00088002C333D8FCFFF4FF900116E0FEEFCA
:10116B005EFFF0900193E004F002109A900194E07E
:10117B00FF22900199EFF0A2AF9200C2AF75C7AA00
:10118B0075C755439F01A20092AF759100E0FF1206
:10119B00064711AA0611AF0711B408000011B77565
:1011AB00A638800875A630800375A63075A7007524
:1011BB00AF04A2AF9200C2AF75C7AA75C75543A4BF
:1011CB0001A20092AF85AE1C05A6A2AF9200C2AFE2
:1011DB0075C7AA75C75543A401A20092AF85AE1D72
:1011EB00900199E0FF12064711FA080000128BE5F7
:1011FB001C25E0FFE51D5401FEEF2EFF90019AF038
:10120B00E0FF54C0F51FE0543FF51EE024F2F075EB
:10121B00AF0C75A60175A700A2AF9200C2AFA2AF2B
:10122B009200C2AF75C7AA75C75543AA40A20092D8
:10123B00AF75C7AA75C75543A401A20092AFE5AE1F
:10124B00644B600BE5AE64526005E5AEB45328E524
:10125B001EC3940F501AE51F6440600BE51F64809A
:10126B006005E51FB4C01090019AE024F2F08007EE
:10127B0090019AE024FCF090019AE0FFC313F51C57
:10128B0075C7AA75C755851C8475C7AA75C75585BB
:10129B001D85A2AF9200C2AF75C7AA75C755539FE4
:1012AB00FEA20092AF2290019BEEF0A3EFF075919E
:1012BB0000A2AF9200C2AF90019BE0FEA3E0FF8EB5
:1012CB00F012066D12F3000112FF00041313000855
:1012DB0013270010133B0020134F004013630080B3
:1012EB00137701000000138975C7AA75C75553AA58
:1012FB00F802138975C7AA75C75553AAF875C7AAFB
:10130B0075C75543AA01807675C7AA75C75553AAE9
:10131B00F875C7AA75C75543AA02806275C7AA7527
:10132B00C75553AAF875C7AA75C75543AA03804E6C
:10133B0075C7AA75C75553AAF875C7AA75C755437C
:10134B00AA04803A75C7AA75C75553AAF875C7AAD8
:10135B0075C75543AA05802675C7AA75C75553AAE5
:10136B00F875C7AA75C75543AA06801275C7AA7523
:10137B00C75553AAF875C7AA75C75543AA07A20044
:10138B0092AFA2AF9200C2AF75C7AA75C75543AA59
:10139B0010A20092AFA2AF9200C2AF75C7AA75C7D9
:1013AB005543AA80A20092AF22900189EFF09001E1
:1013BB008C7401F0900189E0FFD394054003021473
:1013CB0080E0741E2FF582E43401F583E0FF547F37
:1013DB00FF90018AF0E0FFC394125013E074242FA6
:1013EB00F582E43401F583E0FF90018AF0800590EB
:1013FB00018AE4F0900189E0FF70077F051216095E
:10140B00800A900189E0FF14FF12160990018BE40A
:10141B00F090018BE0FFC394075052C28290018978
:10142B00E0FF64026004E0B4030890018C7401F0E7
:10143B00800590018CE4F090018BE0FF90018AE035
:10144B00FEA807088002C313D8FCFF30E00C900104
:10145B008CE0FF24FFB39290800990018CE0FF2475
:10146B00FF9290D28290018BE004F080A4900189CE
:10147B00E0FF1215D722787FE4F6D8FD9000007FAD
:10148B00FF7E03E4F0A3DFFCDEFA7581230214D6A2
:10149B0002000EE493A3F8E493A34003F68001F259
:1014AB0008DFF48029E493A3F85407240CC8C33352
:1014BB00C4540F4420C8834004F456800146F6DF21
:1014CB00E4800B010204081020408090163BE47E60
:1014DB00019360BCA3FF543F30E509541FFEE49316
:1014EB00A360010ECF54C025E060A840B8E493A3DD
:1014FB00FAE493A3F8E493A3C8C582C8CAC583CA08
:10150B00F0A3C8C582C8CAC583CADFE9DEE780BEBF
:10151B00900175EFF0538EF75389F0438901E0FF8B
:10152B00E4FCFDFEA3E0F8A3E0F9A3E0FAA3E0FBE3
:10153B001204B37B0C7A007900780012053EA804E4
:10154B00A905AA06AB07C374FF9BF50F74FF9AF5A9
:10155B000EE499F50DE498F50CAF0FAE0EAD0DFC46
:10156B0078081205F78F08E50FFFE50E7400FEE50E
:10157B000D7400FDE50C7400FC8F0A85088C850A40
:10158B008AC28DD28CD2A922C2D5E830E70FB2D550
:10159B00E4C39BFBE49AFAE499F9E498F8EC30E79E
:1015AB0017B2D51215C912053EE4C39BFBE49AFA98
:1015BB00E499F9E498F8800312053E30D50DE4C3A5
:1015CB009FFFE49EFEE49DFDE49CFC2290019DEFB9
:1015DB00F0E0FF12064715F70015FA0115FD02168C
:1015EB00000316030416060500001608C28122C26A
:1015FB009222D28422D29122C28322C280229001D3
:10160B009EEFF0E0FF120647162900162C01162F4D
:10161B00021632031635041638050000163AD2812D
:10162B0022D29222C28422C29122D28322D280223F
:10163B0042010000004201170000520124FE30ED70
:10164B00F933DBDFF0FFFBF73F0D3DCFE701004642
:10165B00011E20202020202041011D000090019020
:10166B00EEF0A3EFF0900190E0FEA3E0FFF5828E89
:10167B0083E493FE740193FFEEFF7E00900192F0E2
:10168B00E0FF22A2AF9200C2AF75C7AA75C7554340
:10169B00AA40A20092AFE5AA20E6FB2290011DE032
:1016AB00FF04F01213B490011DE0FFD39405400228
:1016BB00E4F022D292D281C284C291D283D2802210
:00000001FF
